:020000040800F2
:10000000580800209D0100082B3600088D2A0008A2
:1000100029360008AD0F0008214900080000000043
:100020000000000000000000000000002D43000858
:10003000AF0F0008000000002D36000889430008BB
:10004000B7010008B7010008B7010008B7010008B0
:10005000B7010008B7010008B7010008B7010008A0
:10006000B7010008B7010008B7010008B701000890
:10007000B7010008B7010008B7010008B701000880
:10008000B7010008B7010008B7010008B701000870
:10009000B7010008B7010008B7010008B701000860
:1000A000B7010008B7010008B7010008B701000850
:1000B000B7010008B7010008B7010008B701000840
:1000C000B7010008B7010008B7010008B701000830
:1000D000B7010008B7010008B7010008B701000820
:1000E000B7010008B7010008B7010008B701000810
:1000F000B7010008B7010008B7010008B701000800
:10010000B7010008B7010008B7010008B7010008EF
:10011000B7010008B7010008B7010008B7010008DF
:10012000B7010008B7010008B7010008B7010008CF
:10013000B7010008B7010008B7010008B7010008BF
:10014000B7010008B7010008B7010008B7010008AF
:10015000B7010008B7010008B7010008B70100089F
:10016000B7010008B7010008B7010008B70100088F
:10017000B7010008B70100080000000000000000FF
:10018000B7010008B7010008DFF80CD000F058FAFA
:100190000048004791520008580800200648804750
:1001A00006480047FEE7FEE7FEE7FEE7FEE7FEE75C
:1001B000FEE7FEE7FEE7FEE78D4300088901000841
:1001C0002DE9F05F0546002092469B46884606468C
:1001D000814640241BE0284641464746224600F01F
:1001E0005BF853465A46C01A914110D3114618463F
:1001F000224600F042F82D1A67EB01084F462246CE
:100200000120002100F039F817EB00094E41201EB3
:10021000A4F10104DFDC484631462A46434600F09B
:1002200000B830BCBDE8C09F00F0004230F0004094
:100230000AD0C10D01F56071C0F3160042EA015108
:10024000C20840071143704700200146704730B58F
:100250000B46014600202022012409E021FA02F584
:100260009D4205D303FA02F5491B04FA02F528441E
:10027000151EA2F10102F1DC30BD202A04DB203A78
:1002800000FA02F1002070479140C2F1200320FAE9
:1002900003F3194390407047202A04DB203A21FAE7
:1002A00002F00021704721FA02F3D040C2F120028F
:1002B00091400843194670472DE9FE4F804681EA78
:1002C0000300C00F0C46009021F0004123F00045D0
:1002D000B8EB0200A94105D24046214690461C4693
:1002E0000B46024623F00040104347D0270DC7F3CA
:1002F0000A00C3F30A510290401A019040286BDAB9
:10030000C3F3130040F4801B0098924620B10023F1
:10031000D2EB030A63EB0B0B01985946C0F1400284
:100320005046FFF7AAFF06460D4650465946019A29
:1003300000F098F910EB08006141002487EA11529F
:1003400084EAE7731A4340D0009A62B3019A012A03
:100350004FEA075215DC001B61EB02014FF000422F
:1003600002EA0752CDE90042001C41F580113246F5
:100370002B4600F098F903B000F045B840462146FE
:10038000F9E7001B61EB0201001C41F58013001826
:100390005B412018A2F5001747EB030140EAD57036
:1003A000B6196D4111E06D084FEA360645EAC07591
:1003B0004FEA0752001B61EB0201001C41F580115E
:1003C00049084FEA30000019514132462B4603B02C
:1003D00000F01CB800F058B900980122400000233A
:1003E000D0EB020263EBE073009821464FEAE07421
:1003F000B8EB000061EB0401E9E783F000435BE741
:1004000081F0004158E730BCBDE8C08F30BCBDE88A
:10041000C04FFFF7DFBF2DE9FE4F81EA030404F070
:10042000004421F0004100944FF0000B23F0004302
:1004300050EA01045ED052EA03045BD0C3F30A54CD
:10044000C1F30A552C44A4F2F3340194A0FB0254E6
:10045000C1F3130141F48011C3F3130343F4801378
:1004600001FB024400FB034E840A970A44EA8154CC
:1004700047EA8357A4FB076802958D0A05FB0785A9
:100480004FEA932C04FB0C542705029D4FEA0658B3
:1004900047EA1637B5EB08056EEB070C870E920E90
:1004A00047EA811742EA8312A7FB0201B6EB0B0170
:1004B00064EB00042B0D43EA0C335E1844EB1C5034
:1004C000DA465146E7FB0201C5F313044FEA0B334A
:1004D00043EA14534FEA0432019C43EA0603A4F1B1
:1004E0000C040294009CCDE900B400F0DCF803B0E9
:1004F00000F003B800200146F9E730BCBDE8C08F2A
:100500002DE9F04D81EA030404F0004B21F0004591
:1005100014464FF0000A23F0004150EA050220D0B3
:1005200054EA01021DD0C5F30A570246C5F313036E
:10053000C1F31300C1F30A5640F4801543F480134D
:10054000A7EB0608101BD64608F2FD3873EB050032
:1005500002D308F1010801E092185B41B8F1000FE5
:1005600003DA00200146BDE8F08D00204FF4801131
:10057000064684460EE0171B73EB050705D3121BD6
:1005800063EB050306434CEA010C49084FEA3000CF
:1005900092185B4150EA0107EDD152EA030012D0F4
:1005A00082EA040083EA0501084305D0101BAB4131
:1005B00006D20122002306E000224FF0004302E0B1
:1005C0006FF0010253101AEB06004CEB085110EBD0
:1005D0000A0041EB0B01BDE8F04D00F055B8C1F346
:1005E0000A52C1F3130140F2FF3341F480119A42E1
:1005F00002DA00200146704740F233439A42A2F2E9
:10060000334202DC5242FFF747BEFFF736BE00001E
:1006100030B5041E71F1000404DB4FF00044404289
:1006200064EB0101141E73F1000405DB1C464FF05E
:100630000043524263EB0403994208BF904230BD2D
:10064000064C074D06E0E06840F0010394E807001F
:1006500098471034AC42F6D3FFF79AFDD056000805
:10066000F0560008202A06DBCB17203A41FA02F0A8
:1006700043EAE07306E041FA02F3D040C2F12002FF
:10068000914008431946704710B5141E73F10004D9
:1006900008DA401C41F1000192185B411A4301D174
:1006A00020F0010010BD2DE9F04D92469B4611B19E
:1006B000B1FA81F202E0B0FA80F220329046FFF700
:1006C000DCFD04460F4640EA0A0041EA0B015346AE
:1006D0005A46084313D0114653EA010019D0C8F115
:1006E00040025046FFF7D8FD05460E465046594693
:1006F0004246FFF7C2FD084305D0012004E0204632
:100700003946BDE8F08D0020054346EAE0762C43EB
:1007100037430A986305E40AA0EB08000022FD0AAB
:1007200044EA47540A3002D500200146E9E70105B2
:1007300010196941DDE9084500196941BDE8F04D2E
:10074000A2E7000010B5214804F0ECF8204804F0BE
:10075000E9F8204804F0E6F800F0FEF81EA004F0E6
:10076000E1F82AA023E04E2804D0712827D0512890
:1007700025D018E032A004F0D5F8394800F0D4F8BC
:10078000374C38A0B4F9001004F0CCF8B4F90210DA
:1007900039A004F0C7F8B4F904103CA004F0C2F882
:1007A00027A004F0BFF83EA004F0BCF847A004F076
:1007B000B9F8FF2003F0BCFD6E28DBD0D3E700F0D2
:1007C000BFF8BDE810404EA004F0ACB8C05500081A
:1007D000F45400086C5400080A2A2A2A205479701C
:1007E00065206E206F72204E20746F206765742024
:1007F0006120666972737420616363656C65726FF2
:100800002064617461202A2A2A0A0A000A2A2A2AF4
:1008100020547970652071206F72205120746F20F0
:100820007175697420616363656C65726F6D657461
:1008300065722054657374202A2A2A0A0A0000006F
:100840000A2A2A2A20546869732069732061206E5D
:1008500065772064617461202A2A2A0A0A00000050
:100860003C000020414343454C45524F5F58203DDA
:10087000202564200A000000414343454C45524F67
:100880005F59203D202564200A0000004143434574
:100890004C45524F5F5A203D202564200A0000003D
:1008A0000A2A2A2A2054797065206E206F72204E01
:1008B00020746F206765742061206E657720646105
:1008C0007461202A2A2A0A0A000000000A2A2A2A19
:1008D00020547970652071206F72205120746F2030
:1008E0007175697420416363656C65726F6D6574C1
:1008F00065722054657374202A2A2A0A0A000000AF
:100900000A2A2A2A20456E64206F662041636365A7
:100910006C65726F6D657465722054657374202AFE
:100920002A2A0A0A0000000004490968002903D0A5
:10093000096B002900D00847704700002400002000
:1009400004480068002803D04068002800D0004711
:10095000704700002400002070B5084D0024A868EE
:1009600080476A2801D0012405E005480560296810
:1009700044F230408847204670BD0000A0000020AF
:100980002400002070B586B00D46040018D124481C
:10099000C16C41F00201C164C16C01F0020105911A
:1009A000C16C41F00201C164C16C01F0020105910A
:1009B000016E41F480410166006E00F480400590B4
:1009C00018480226694630F81400CDE900060020D8
:1009D000CDE902061348001D30F8140004901248B7
:1009E00050F8240000F09AFC0E486946801C30F84C
:1009F0001400CDE900060B48801D30F81400049067
:100A00000948001D50F8240000F088FC0648001F2B
:100A100050F824002860284601F054FE06B070BD4E
:100A200000100240885300080C00002004480068B1
:100A3000002803D04068002800D00047704700001D
:100A40001C00002004490968002903D0096B002913
:100A500000D00847704700001C00002070B5074D0B
:100A60000124A86880476A2806D1054805602968DE
:100A700044F23C4088470024204670BDD40000204A
:100A80001C00002010B5074CBE2061688847BC28B8
:100A900001D0012010BD044804602168BE208847B1
:100AA000002010BD840000201800002002480068CB
:100AB0008168BE20084700001800002000B587B0FC
:100AC00040B90D49CA6C42F00202CA64C96C01F017
:100AD00002010591094951F820100091012101916D
:100AE0000021029102210391054951F82000694635
:100AF00000F014FC07B000BD001002409053000845
:100B0000000000200449054A31F8201052F8200066
:100B100089B2012200F03ABD905300080000002085
:100B200004480068002803D04068002800D000472F
:100B3000704700002000002004490968002903D004
:100B4000096B002900D008477047000020000020F2
:100B5000E0B50F4D0026A86880473D2801D001264A
:100B600013E00C4800210560582060F3070761F38B
:100B70000F27384661F31740082161F31F604022B8
:100B8000214662F307012A6890473046E0BD000025
:100B900044000020200000200349044A31F81010CE
:100BA00052F8200000F0EDBC84530008040000203F
:100BB00030B504461D4887B0C26C42F00402C264DE
:100BC000C06C1C4B00F00400059019480122F1B1E3
:100BD00001291AD130F8140000900320CDE9022039
:100BE0001548019053F82400694600F097FB104D1A
:100BF0000022AD1C0F2115F8140040B200F022FFB6
:100C000015F8140040B200F010FF07B030BD30F806
:100C1000140000900020CDE901020220039053F857
:100C20002400694600F07AFBEFE700000010024064
:100C300084530008040000200000111010B5074C78
:100C4000BA2061688847B12801D0012010BD04484E
:100C500004602168BA208847002010BD7800002079
:100C600028000020024800688168BA200847000078
:100C700028000020074910B505480860084600F024
:100C8000FEFF08B1012010BD00F0A6F8002010BD45
:100C9000001000A0E001002000B591B04FF480707A
:100CA0000690EB2000904FF4406007904FF4005006
:100CB00003904FF44040AA210890029100204FF089
:100CC000407109910421CDE904010B900C900D9025
:100CD0000F900EAA6946044801F036F8002800D0AB
:100CE000012011B000BD0000E001002000B58FB070
:100CF0004FF480710691D821009101904FF48061EA
:100D000000200791C90003910890099005900B906D
:100D10000C900D900A4803F00BF968B941F2883243
:100D20006946074800F065FF30B940F6AC51044809
:100D300002F070FD002800D001200FB000BD0000BF
:100D4000E00100204FF400010160C9124160491028
:100D50008160C910C160C9010161002070470000B5
:100D600010B51C4C1A482060204600F088FF60BB7C
:100D700000F052F8022060600420A0601020E060C3
:100D8000C00490FAA0F0B0FA80F0401E206100206C
:100D90006061A061204600F087FFB0B9204603F0F3
:100DA00079F808B1042010BD01210A4803F010F8B9
:100DB00058B90121074802F005FE30B901206060F2
:100DC000044800F071FF0028EDD0012010BD0000A4
:100DD000001000A0E001002038B50D4CE06C40F0A0
:100DE0001000E064E06C4FF47C4100F010000090D3
:100DF000084800F0DFF9206B40F480702063206B1E
:100E000020F480702063206D20F48070206538BD50
:100E10000010024000100048154800B5016D87B071
:100E200041F480710165016D01F480710591016BE0
:100E300041F480710163016B21F480710163C16C25
:100E400041F01001C164C06C694600F010000590CB
:100E50004FF47C400090022001900020029003207B
:100E600003900A200490034800F058FA07B000BD30
:100E7000001002400010004830B58FB004464FF417
:100E800080700690EB2000904FF4406007904FF484
:100E9000005003904FF440400890AA200290019126
:100EA00000214FF0407009900420CDE90410CDE9F5
:100EB0000A210C9141F288350D912A46694607486E
:100EC00000F097FE30B92A462146044800F084FF1E
:100ED000002800D001200FB030BD0000E00100204C
:100EE0002DE9F0438146C8B2C0F580758FB09542B8
:100EF00000D915468E180C4638204FF480710090AA
:100F00004FF44060CDE906104801039000204FF0F7
:100F10004072CDE9080205900B900C9041F28837A1
:100F200088460D9013480A95019403F001F880B9A2
:100F30003A4669460F4800F05CFE50B93A464946C9
:100F40000C4800F0AFFF20B939460A4802F062FCB5
:100F500018B101200FB0BDE8F0832C4404F5807077
:100F6000A944B04201D9351B00E04546B442D9D36B
:100F70000020EFE7E001002010B5074C0548206095
:100F800003F0A0F9206800210268BE2090470020ED
:100F900010BD0000900000201400002002480068EE
:100FA000C168BE200847000014000020FEE770471B
:100FB00010B5002302E09C18C4545B1C8B42FAD38A
:100FC00010BD000010B5274803F0ACFC264803F024
:100FD000A9FC264803F0A6FCFFF740FD24A02FE063
:100FE0004E2804D0712836D0512834D027E02CA0C8
:100FF00003F098FC3248FFF725FD314C2068FFF7DD
:1010000013F941EC100B2FA053EC102B03F08AFCCA
:101010006068FFF709F941EC100B2EA053EC102B80
:1010200003F080FCA068FFF7FFF841EC100B2DA047
:1010300053EC102B03F076FC19A003F073FC2DA0E9
:1010400003F070FC36A003F06DFCFF2003F070F994
:101050006E28CCD0C4E7FFF7E9FCBDE810403BA008
:1010600003F060BCC05500087C5500086C540008B3
:101070000A2A2A2A2054797065206E206F72204E29
:1010800020746F2067657420612066697273742014
:101090006779726F2064617461202A2A2A0A0A0023
:1010A0000A2A2A2A20546869732069732061206EF5
:1010B00065772064617461202A2A2A0A0A000000E8
:1010C000240200204759524F5F58203D20252E32E0
:1010D00066200A004759524F5F59203D20252E3285
:1010E00066200A004759524F5F5A203D20252E3274
:1010F00066200A000A2A2A2A2054797065206E2068
:101100006F72204E20746F206765742061206E65B9
:10111000772064617461202A2A2A0A0A00000000EC
:101120000A2A2A2A20547970652071206F72205172
:1011300020746F2071756974204779726F2054652F
:101140007374202A2A2A0A0A000000000A2A2A2A7E
:1011500020456E64206F66204779726F2054657356
:1011600074202A2A2A0A0A0010B590F825100022B5
:10117000022905D00421C16380F82420012010BD7C
:1011800001680B6823F00E030B6001680B6823F005
:1011900001030B6090F84410046C01F01C03012162
:1011A00001FA03F3636080F8251080F824201046CC
:1011B00010BD00002DE9F84F00230126DFF834C1EF
:1011C0000F2791E006FA03F414EA01027ED023F01F
:1011D00003056544AA46D5F808909D074FEA157E99
:1011E00007FA0EF505EA090B0095B0F1904F05D00E
:1011F000414DA84205D14FF0010822E04FF0000810
:101200001FE03E4DA84202D14FF0020819E03C4DCC
:10121000A84202D14FF0030813E03A4DA84202D190
:101220004FF004080DE0384DA84202D14FF00508F8
:1012300007E0364DA84202D14FF0060801E04FF01A
:10124000070808FA0EF8D84524D1DFF8C480D8F88A
:10125000009029EA0209C8F8009008F10408D8F8BB
:10126000009029EA0209C8F8009008F10408D8F8AB
:10127000009029EA0209C8F8009008F10408D8F89B
:1012800000509543C8F80050009ADAF8085095438A
:10129000CAF80850D0F800804FEA4309032202FA46
:1012A00009F248EA0208C0F80080DD0800EB850575
:1012B000AA46D5F820804FEA43794FEAD96907FA60
:1012C00009F528EA0508CAF8208000E00BE08568E7
:1012D000954385604568A5434560C5689543C560ED
:1012E000C26AA243C2625B1C31FA03F27FF46AAFA6
:1012F00000F010B800000140000400480008004859
:10130000000C004800100048001400480018004875
:101310000004014018BCBDE8E08F00002DE9F04F4B
:10132000DFF83492002309F1040A012403250AF1AD
:10133000040B87B00F270BF1040E04E104FA03F647
:1013400032407CD0D1F804C0BCF1010F08D0BCF110
:10135000020F05D0BCF1110F02D0BCF1120F29D140
:10136000D0F808C0CDF800C04FEA430C05FA0CF8DD
:10137000CDF80CC0DDF800C02CEA080CCDF800C098
:10138000D1F80C80DDF80CC008FA0CF8DDF800C0CC
:1013900048EA0C08C0F80880D0F8048091F804C02E
:1013A00028EA0608CCF3001C0CFA03FC4CEA080CF3
:1013B000C0F804C0D1F804806FEA080C5FEA8C7CA6
:1013C00009D1D0F82CC02CEA060CC8F3C0069E4008
:1013D00046EA0C06C662D0F80CC04FEA430805FA8C
:1013E00008F62CEA060CCDF8148002968E6806FAF0
:1013F00008F646EA0C06C6604E68022E01D0122E90
:1014000015D1DE0800EB86060396366A4FEA437C68
:101410004FEADC6807FA08FC26EA0C06D1F810C08F
:101420000CFA08FC4CEA060C039EC6F820C00668BD
:10143000DDF808C026EA0C0691F804C000E081E05F
:10144000DDF814800CF0030C0CFA08FC4CEA060CD6
:10145000C0F800C04E68F60074D5404ED6F860C0A3
:101460004CF0010CC6F860C0366E23F0030C06F099
:10147000010600963A4E66440296D6F808C09E07CA
:101480004FEA167807FA08F62CEA060CB0F1904FEE
:1014900004D0344EB04203D101261BE0002619E0EF
:1014A000314EB04201D1022614E0304EB04201D19B
:1014B00003260FE02E4EB04201D104260AE02D4E45
:1014C000B04201D1052605E02B4EB04201D10626DF
:1014D00000E0072606FA08F646EA0C06DDF808C022
:1014E000CCF80860D9F80060CC46D1F80480964367
:1014F0005FEAC83800D51643CCF80060DAF800601F
:10150000D446D1F8048096435FEA883800D5164364
:10151000CCF80060DBF80060DC46D1F8048096432C
:101520005FEAC82800D51643CCF80060DEF80060FA
:10153000F446D1F8048096435FEA882800D5164324
:10154000CCF800605B1C0A6832FA03F67FF4F6AE52
:1015500007B000F013B80000000401400010024082
:10156000000001400004004800080048000C00484A
:1015700000100048001400480018004830BCBDE8C6
:10158000C08F0069084000D0012070470AB1816116
:101590007047816270470000014880687047000012
:1015A0002C00002090F84120202A24D190F84020DF
:1015B000012A20D0012280F84020242280F84120F6
:1015C0000268136823F0010313600268136823F4B0
:1015D00080531360026813680B43136001680A6844
:1015E00042F001020A60202180F84110002180F8B9
:1015F0004010084670470220704710B5040013D011
:10160000242084F841002068016821F00101016074
:10161000204600F0CCF90020606484F8410044F8D2
:10162000300FA074207410BD012010BD70B50400EF
:1016300004D094F84100002510B106E0012070BDEF
:1016400084F84050204600F0B3F9242084F841008B
:101650002068016821F0010101606068216820F0C4
:10166000706008612068816821F400418160E06851
:101670000128A06807D040F4044021688860E06831
:10168000022803D006E040F40040F6E721684FF45A
:101690000060486020684168114A11434160206839
:1016A000C16821F40041C160D4E904010843A16983
:1016B00040EA01202168C860D4E907010843216895
:1016C00008602068016841F0010101606564202024
:1016D00084F84100256384F84250002070BD00006A
:1016E000008000022DE9FF4F83B00446DDE910873A
:1016F00090F84100DDF848909A469346202874D12E
:101700005FEA080014D09FB194F8400001286CD023
:10171000012084F84000FFF73FFF064601220090B9
:101720001923D103204601F071FB002871D103E099
:101730004FF4007060646CE0222084F84100402087
:1017400084F8420000256564C4F8248067856563D9
:10175000CDE9009653465A462046049901F0DCFA3A
:1017600010B184F8405054E0618D3548FF274FF0A8
:1017700080784FF0007AFF2904D927853A464346FE
:10178000009005E0618D2185009094F82820534653
:101790002046049901F024FB4B46002204212046F8
:1017A000009601F033FBA0BB2068406A616A0870B4
:1017B000606A401C6062208D401E81B22185608D70
:1017C000401E6085608DD8B1D1B94B460022802182
:1017D0002046009601F01AFBD8B9608DFF2805D984
:1017E00027853A464346009506E026E0608D208531
:1017F000009594F8282053462046049901F0F0FA09
:10180000608D0028C8D132464946204601F02AFBA7
:1018100018B1012007B000F017B821682020C86176
:1018200021684A68074B1A404A6084F8410084F8EE
:10183000425084F840500020ECE70220EAE7000024
:101840000024008000E800FE30BCBDE8C08F00002E
:101850002DE9FF4F83B00446DDE9108790F8410081
:10186000DDF848909A469346202871D15FEA080037
:1018700014D09FB194F84000012869D0012084F869
:101880004000FFF789FE0646012200901923D1038C
:10189000204601F0BBFA00286ED103E04FF400703F
:1018A000606469E0212084F84100402084F842000F
:1018B00000256564C4F8248067856563CDE90096DA
:1018C00053465A462046049901F058FA10B184F85C
:1018D000405051E0608DFF274FF080784FF0007A44
:1018E000FF2804D927853A464346009505E0608DD8
:1018F0002085009594F8282053462046049901F04D
:101900006FFA32464946204601F0D2FAA0BB606A1F
:10191000216800788862606A401C6062608D401EA9
:101920006085208D401E80B22085618DD9B1D0B9EF
:101930004B46002280212046009601F067FAD8B974
:10194000608DFF2805D927853A464346009506E075
:1019500026E0608D2085009594F828205346204687
:10196000049901F03DFA608D0028CAD132464946FB
:10197000204601F077FA18B1012007B000F014B842
:1019800020682021C16120684268064B1A404260ED
:1019900084F8411084F8425084F840500020ECE76D
:1019A0000220EAE700E800FE30BCBDE8C08F7047C7
:1019B00070470000024881680278114481607047D6
:1019C0002C00002010B50024032000F05BF80F204D
:1019D00000F008F808B1012401E000F025F82046E5
:1019E00010BD000070B50E4E05460024307898B149
:1019F0004FF47A71B1FBF0F00A490968B1FBF0F0DD
:101A000000F04CFE40B9102D06D200222946501E8F
:101A100000F018F8756000E00124204670BD000059
:101A20002C000020380000207047002809DB00F05F
:101A30001F02012191404009800000F1E020C0F820
:101A400000117047F0B40E4B1B680C46C3F3022321
:101A5000C3F10705042D00D90425191D072901D25A
:101A6000002300E0DB1E012606FA05F1491E214095
:101A700099409E40761E16403143F0BC02F062BF92
:101A80000CED00E0064900F0070208684FF6FF037E
:101A9000184040EA0220034A1043086070470000E3
:101AA0000CED00E00000FA050248006800F4C06098
:101AB0007047000000700040F8B504460025FFF7AD
:101AC0006BFD064694F83900800736D5002084F86F
:101AD00038002068016849070BD5016821F004012E
:101AE0000160606BFFF740FB18B1E06B40F0040051
:101AF000E0632068016841F002010160206C009001
:101B0000334601220221204602F0EEF9050014D1ED
:101B100021680220C860206C0090334600222021FA
:101B2000204602F0E1F9050007D12068416921F063
:101B300040614161012084F839002846F8BD000069
:101B40002DE9F84F1E4615468A460446FFF724FD48
:101B5000814694F8380001280ED0012784F83870A7
:101B600094F839004FF00008012807D05FF0020018
:101B700084F8388000F03AB80220FBE7C4F83C80D3
:101B8000422084F839004B4600222021204600964E
:101B900002F0AAF90028EBD1216828688862216840
:101BA000686848622168A868C86220682969026874
:101BB00022F4400242F4800211430160E968CAF84D
:101BC00028104FF000625146204601F04BFE4B4674
:101BD000012208212046009602F086F90028C7D18C
:101BE00022680821D16084F83970C1E718BCBDE8CB
:101BF000E08F2DE9F84F17468B460446FFF7CCFCE3
:101C0000824694F8380001280ED0012684F8386006
:101C100094F839004FF00008012807D0022584F815
:101C20003880284600F028B80220FBE7C4F83C8042
:101C30004FF0020984F839905346002220212046B3
:101C4000009702F051F90500E9D1002259462046DB
:101C500001F008FEDBF8240058B9534601220221A6
:101C60002046009702F040F90500D8D12168C1F85C
:101C70000C9084F83960D2E718BCBDE8E08F10B54D
:101C800004000ED02068016821F0010101602046A7
:101C900000F0A0F80020E06384F8390084F83800F0
:101CA00010BD012010BD0000F8B50446FFF774FC1C
:101CB000064624B194F83900002510B109E001204E
:101CC000F8BD84F83850204600F085F841F288309D
:101CD000206420680168A2686FF0FF0321F470613E
:101CE00003EB022211430160206C00903346002276
:101CF0002021204602F0F8F8F0B921680A68104B5C
:101D00001A40237942EA0362E3681A430A60D4E97D
:101D100005121143226853680A4E3340268A43EA6B
:101D200006431943516021680A6842F001020A60C3
:101D3000E563012184F8391084F83850F8BD0000BB
:101D4000EFFFFF00FEF8E0FF2DE9F8431646884656
:101D50000446FFF721FC034694F8380001280ED012
:101D6000012084F8380094F839000027012808D0B1
:101D70005FF0020584F838702846BDE8F883022039
:101D8000FBE7E763822084F83900206C0090002292
:101D90002021204602F0A8F80500EBD12068016858
:101DA000726821F0080111430160706808280AD1A7
:101DB00021683068086321681020C86020680168C5
:101DC00041F4801101604FF040624146204601F02D
:101DD00049FDCFE7704770472DE9F84F15460F468C
:101DE0000446FFF7D9FB82462068816994F83820C1
:101DF00000F12009012A0DD0012684F8386094F8FA
:101E000039204FF00008012A06D0022084F83880DB
:101E100000F044B80220FBE7C4F83C80BFB32222A4
:101E200084F839200269521C22630269521CE26262
:101E3000A762426922F0406242F0806242612068FB
:101E400081610EE00621204602F04EF8E0B999F8D3
:101E50000000A16A0870A06A401CA062206B401EAE
:101E60002063206B53464FF0010200950028E9D112
:101E70004FF00201204602F037F828B9216802200D
:101E8000C8602046FFF718FE84F83960BEE7FFE718
:101E9000E06B40F00800E0630120B7E718BCBDE844
:101EA000E08F00002DE9F84F15460F460446FFF776
:101EB00073FB8246206894F8381000F1200901294C
:101EC0000ED0012684F8386094F839104FF00008DD
:101ED000012907D05FF0020084F8388000F040B894
:101EE0000220FBE7C4F83C809FB3122184F839102C
:101EF0000169491C61620169491C2162E76141690C
:101F000021F0406141610EE00421204601F0ECFF28
:101F1000E0B9E069017889F80010E069401CE061EF
:101F2000606A401E6062606A53464FF0010200958D
:101F30000028E9D14FF00201204601F0D5FF28B971
:101F400021680220C8602046FFF7B6FD84F839609A
:101F5000C2E7FFE7E06B40F00800E0630120BBE769
:101F600018BCBDE8E08F00002DE9F0470F460500E2
:101F700058D0404E306800F00700B84209D23068AF
:101F800020F0070038433060306800F00700B842A6
:101F900048D12878384CC0072CD06868032811D065
:101FA000022812D0216898B1490500293ADAA168BF
:101FB00021F003010143A160FFF7EEFA804641F2F0
:101FC000883910E021688901EFE721688903ECE78F
:101FD0008907EAE7FFF7E0FAA0EB0801494502D9D3
:101FE0000320BDE8F087A068696800F00C00B0EB42
:101FF000810FEFD12878800705D5A068A96820F067
:10200000F0000843A060306800F00700B8420BD928
:10201000306820F0070038433060306800F0070077
:10202000B84201D00120DCE72878400705D5A06838
:10203000E96820F4E0600843A0602878000706D52E
:10204000A068296920F4605040EAC100A06000F057
:102050003FF8A168094AC1F30311515C01F01F0167
:10206000C8400749086007480068BDE8F047FFF727
:10207000B9BC000000200240001002409453000848
:1020800038000020300000200548064900688968B3
:10209000054AC1F30221515C01F01F01C84070479D
:1020A0003800002000100240D453000805480649BB
:1020B00000688968054AC1F3C221515C01F01F0123
:1020C000C84070473800002000100240D453000878
:1020D00070B52549002318468A68CC6812F00C02B6
:1020E00004F00306214C4FEA640509D00C2A05D000
:1020F000042A32D0082A00D1284670BD012E10D102
:102100000B681B0704D4D1F89430C3F3032302E017
:102110000B68C3F30313164E56F82330DAB10C2ABA
:10212000EBD1C86800F00300022818D0032818D0AB
:102130001846CA68CB68C2F30212C3F306234343AE
:10214000521CB3FBF2F2C868C0F34160401C40006F
:10215000B2FBF0F070BD184670BD204670BD204641
:10216000E7E72846E5E70000001002400024F400FD
:10217000A45300082DE9F84304006FD0FE4DA86871
:1021800000F00C06E86800F003072078C00664D56C
:1021900076B10C2E01D1012F0AD0A0690028286841
:1021A0007AD040F001002860FFF7F6F980465DE044
:1021B0002868800702D5A0690028DED0216A286837
:1021C000000703D5286800F0F00004E0D5F894007B
:1021D000F02202EA1010814216D9084602F034F8C3
:1021E00000283BD1286840F0080028602868216A50
:1021F00020F0F000084328606868E16920F47F401F
:1022000040EA0120686016E0286840F00800286075
:102210002868216A20F0F000084328606868E169B6
:1022200020F47F4040EA0120686026B9206A02F06D
:102230000BF80028D5D1FFF74BFFA968CF4AC1F3AF
:102240000311515C01F01F01C840CD490860CD4821
:102250000068FFF7C7FB00287ED12EE0CAE000BF70
:10226000FFF79AF9A0EB0800022876D828688007C3
:10227000F6D5286840F0080028602868216A20F018
:10228000F000084328606868E16920F47F4040EA74
:102290000120686011E0FFE720F001002860FFF7EF
:1022A0007BF9804606E000BFFFF776F9A0EB080057
:1022B0000228DAD828688007F6D42078C00740D0F2
:1022C000082E18D00C2E01D1032F14D06068B0F561
:1022D000803F17D0B0F5A02F286817D020F48030A9
:1022E0002860286820F4802028606068E0B1FFF74B
:1022F00053F9804614E02868800322D560680028DE
:1023000078D01EE0286840F48030EDE740F480206B
:102310002860F7E7FFF740F9A0EB08006428A4D88D
:1023200028688003F6D50CE0FFF736F9804605E013
:10233000FFF732F9A0EB0800642896D828688003DC
:10234000F6D4207880073BD5042E11D00C2E01D175
:10235000022F0DD0E06801E092E1F1E0002828684A
:102360001ED040F480702860FFF716F907460CE095
:10237000286840050CD5E0680028C1D008E000BFFF
:10238000FFF70AF9C01B022893D828684005F7D543
:102390006868217C20F0F85040EA016068600FE036
:1023A00020F480702860FFF7F7F8074605E000BFCB
:1023B000FFF7F2F8C01B0228B1D828684005F7D40F
:1023C0002078000729D560690028D5F8940012D03C
:1023D00040F00100C5F89400FFF7DEF8074604E07E
:1023E000FFF7DAF8C01B022899D8D5F894008007C7
:1023F000F6D512E000E120F00100C5F89400FFF7E7
:10240000CBF8074605E000BFFFF7C6F8C01B02285F
:1024100085D8D5F894008007F6D42078400766D593
:10242000A86D0027C00008D4A86D40F08050A865B2
:10243000A86D012700F08050009053480168C9053D
:1024400012D40168814641F480710160FFF7A4F85D
:10245000804605E0FFF7A0F8A0EB080002286FD83F
:10246000D9F80000C005F5D5A068012816D00528C8
:10247000D5F8900017D020F00100C5F89000D5F8ED
:10248000900020F0040000BFC5F89000A06841F261
:102490008839C0B1FFF780F880460FE0D5F890008A
:1024A00040F00100F0E740F00400C5F89000F5E7C7
:1024B000FFF772F8A0EB0801494541D8D5F8900024
:1024C0008007F5D50EE0FFF767F8804606E000BF0D
:1024D000FFF762F8A0EB0801494531D8D5F8900024
:1024E0008007F5D41FB1A86D20F08050A865A06AC0
:1024F00038B302280AD00C2E7ED0286820F08070D5
:102500002860286810F0205F77D0AAE0E868E26AC7
:1025100000F0030191422BD1216B00F07002090100
:102520001039914224D1626B00F4FE41B1EB022FCD
:102530001ED1A26B00F40031072A03D0012202E071
:102540009DE089E00022914212D1A18F00F4C002E7
:1025500049084905A1F50011914209D194F84010AC
:1025600000F0C06049084906A1F1007181425CD0C9
:102570000C2E41D0286809E0001002409453000856
:1025800038000020300000200070004040017ED460
:102590002868C0007BD4286820F080702860FEF78F
:1025A000FBFF064605E000BFFEF7F6FF801B022892
:1025B00065D828688001F7D4D4E90B016FF00F02C9
:1025C00002EB01110843A18F5204490802EB41516B
:1025D000626B41EA0221084394F840104FF07E42BA
:1025E000490802EB41610843A16B090940EA4140F7
:1025F000E968284A114001E049E02EE00843E8601C
:10260000286840F080702860E86840F08070E860DA
:10261000FEF7C2FF044604E0FEF7BEFF001B0228DF
:102620002DD828688001F7D52FE0286880012CD4A8
:10263000286840F080702860E86840F08070E860AA
:10264000FEF7AAFF044604E0FEF7A6FF001B0228DF
:1026500015D828688001F7D517E0E86820F0030056
:10266000E860E8680C490840E860FEF795FF04461A
:1026700008E000BFFEF790FF001B022802D90320EC
:10268000BDE8F88328688001F4D40020F8E7012031
:10269000F6E700008C809DF9FFFFEEFE10B5401EAE
:1026A000B0F1807F01D3012010BD4FF0E0246061C4
:1026B0000F21601702F046F90020A0610720206179
:1026C000002010BD10B5040002D0A06F10B107E0CB
:1026D000012010BD002084F87400204600F025F889
:1026E0002420A0672068016821F0010101602046D4
:1026F00001F0A0FF0128ECD0606A10B1204601F083
:1027000007FF2068416821F490414160206881689A
:1027100021F02A0181602068016841F00101016017
:102720002046BDE8104001F057BF70472DE9F84F33
:102730000446C06F9A4616460D46202870D10DB348
:1027400006B394F8740001286AD0012084F874005C
:102750004FF00008C4F880802221E167C4F860804F
:102760005834FEF719FF24F8026B814624F85269A9
:102770004FF4805354F80809FF21984208D1226988
:102780001AB11CE0012000F04DB840F2FF1116E034
:102790007F2290B1B0F1805F14D0A4F85C8000BFBC
:1027A000B4F85C70984201D1206990B12E460025A2
:1027B00084F8748007F0FF0825E0266936B9A4F88C
:1027C0005C10EDE7216909B13F21F8E7A4F85C202E
:1027D000E6E70026ECE74B46002220212046CDF814
:1027E00000A002F04BF808B10320CCE72068808CF1
:1027F0008EB100EA080006F8010B00BFB4F85A00D9
:10280000401EA4F85A00B4F85A000028E3D1202052
:10281000E0670020B7E7384025F8020BEEE7FFE756
:102820000220B0E718BCBDE8E08F00002DE9F843B6
:102830000446806F1F4616460D4620284FD1CDB165
:10284000C6B194F87400012849D0012084F87400BE
:102850004FF00008C4F880802120A067FEF79CFE9E
:10286000A4F850608146A4F85260A068B0F5805F7B
:1028700003D004E00120BDE8F883206928B12E468A
:102880005FF0000584F8748010E00026FAE78021EC
:10289000204601F0F3FFB8B9C6B116F8010B216864
:1028A0000885B4F85200401EA4F85200B4F8520053
:1028B0004B464FF0000200970028E8D14FF040014E
:1028C000204601F0DBFF30B10320D4E735F8020BDE
:1028D000C0F30800E3E72020A0670020CBE7022038
:1028E000C9E710B50446C0B2202101F0F1FC20F088
:1028F000030040F08502E0B2BDE81040202101F065
:1029000005BD00002DE9F8430446C0B202236A4623
:10291000B02101F0EFFC9DF80000022345089DF86E
:1029200001006A464FEA5008E0B2B62101F0E2FC2D
:10293000BDF90060E0B202236A46BA2101F0DAFC78
:10294000BDF90070E0B202236A46A82101F0D2FC72
:10295000BDF900001849801B00EE100AA8EB050025
:10296000F8EEC00A00EE100AB81BB8EEC00A60EE1E
:10297000800A00EE100AB8EEC00A80EE801A00EE5F
:10298000105AB8EEC00A31EE000AB2EE041A60EE38
:10299000010A10EE900A884202DDDFED080A06E027
:1029A000F5EEC00AF1EE10FA01D2DFED050A80EE75
:1029B000810ABDE8F883000000007A4400007A44F0
:1029C0000000000010B5044601F07CFCE0B2BDE858
:1029D00010400F2101F07CBC10B50446C0B220218C
:1029E00001F076FC20F0030040F08502E0B2BDE883
:1029F0001040202101F08ABC2DE9F8430446C0B202
:102A000002236A46B22101F075FCE0B2352101F0E3
:102A10005FFC9DF8001000F0030241EA02219DF8DE
:102A2000012000F00C0042EA8010CD104FEAE008CF
:102A3000E0B204236A46BC2101F05CFCBDF90060F1
:102A4000BDF90270E0B202236A46AA2101F052FCED
:102A5000BDF90000801B00EE100AA8EB0500F8EE9F
:102A6000C00A00EE100AB81BB8EEC00A60EE800A79
:102A700000EE100AB8EEC00A80EE801A00EE105A7E
:102A8000B8EEC00A31EE000ABDE8F883FEE70000A8
:102A900010B51CA001F046FF2AA001F043FF394801
:102AA00001F040FFFDF7EEFF37A01AE04E2804D0FA
:102AB000712821D051281FD012E040A001F032FF30
:102AC000FDF7F4FF10EE100AFDF7AEFB41EC100B22
:102AD00042A053EC102B01F025FF38A001F022FF9B
:102AE00044A001F01FFF4EA001F01CFFFF2001F0E9
:102AF0001FFC6E28E1D0D9E7BDE8104054A001F0DA
:102B000011BF00000A2A2A2A2A2A2A2A2A2A2A2A1D
:102B10002A2A2A2A2A2A2A2A2A2A2A2A2A2A2A2A15
:102B20002A2A2A2A2A2A2A2A2A2A2A2A2A2A2A2A05
:102B30002A2A2A2A2A2A2A2A2A2A2A2A2A2A2A2AF5
:102B40002A2A0A000A2A2A2A2A2A2A2A2A2A2A2A4F
:102B50002A2A2A2A2A2A2A2A2A2A2A2048756D69F4
:102B6000646974792054657374202A2A2A2A2A2ACF
:102B70002A2A2A2A2A2A2A2A2A2A2A2A2A2A2A2AB5
:102B80002A2A0A00285400080A2A2A2A205479707E
:102B900065206E206F72204E20746F206765742050
:102BA000612066697273742048756D69646974790F
:102BB0002064617461202A2A2A0A0A000A2A2A2A21
:102BC00020546869732069732061206E65772064E2
:102BD000617461202A2A2A0A0A00000048554D49DA
:102BE00044495459206973203D20252E3266202502
:102BF000250A00000A2A2A2A2054797065206E20AE
:102C00006F72204E20746F206765742061206E659E
:102C1000772064617461202A2A2A0A0A00000000D1
:102C20000A2A2A2A20547970652071206F72205157
:102C300020746F20717569742048756D69646974BA
:102C4000792054657374202A2A2A0A0A0000000099
:102C50000A2A2A2A20456E64206F662048756D690D
:102C6000646974792054657374202A2A2A0A0A0038
:102C700001688A69D243920701D400228A620068FF
:102C80008169C943C90703D0816941F001018161AC
:102C9000704700002DE9F0410446006890460E465A
:102CA0008069C043C00633D400252027206880698E
:102CB000C043800615D5701CF8D0FEF76DFCA0EB64
:102CC0000800B04201D8002EF0D154F8440F40F073
:102CD000200044F804096770A57025700120BDE844
:102CE000F08121681020C8612068C7612046FFF785
:102CF000BFFF54F8440B4168064A11404160206808
:102D000040F0040044F820096777A5772577E5E7C8
:102D10000020E4E700E800FE2DE9F84304461646EB
:102D2000DDE9089714489846DAB20090002320465F
:102D300000F056F83A464946204600F0B9F8B8B9CE
:102D4000F5B2B8F1010F08D02168300A88623A461E
:102D50004946204600F0ACF850B9206885624B46E1
:102D6000002240212046009700F050F8002800D0B3
:102D70000120BDE8F8830000002000802DE9F84321
:102D80000446164615489846DDE90897DAB2C302AC
:102D90000090204600F024F83A464946204600F0CC
:102DA00087F8B8B9F5B2B8F1010F08D02168300A38
:102DB00088623A464946204600F07AF850B92068C1
:102DC00085624B46002280212046009700F01EF8C5
:102DD000002800D00120BDE8F8830000002000801A
:102DE000F0B50568059C68684FF48066064FC1F32E
:102DF000090106EA545641EA02413E431943B043F1
:102E0000214308436860F0BDFF63FF032DE9F041F3
:102E10001D4617460E460446DDF8188008E0681C7B
:102E200006D0FEF7B9FBA0EB0800A8420BD855B1BD
:102E30002068806936EA000012D00020B842EED047
:102E40000020BDE8F08154F8440F40F0200044F821
:102E50000409202060700020A07020700120F0E79D
:102E60000120EBE770B516460D4604460DE03246EC
:102E700029462046FFF70EFF08B1012070BDFEF77E
:102E80008BFB801BA84207D835B120688069C043FE
:102E90008006ECD4002070BD54F8440F40F02000B0
:102EA00044F80409202060700020A0702070E4E73E
:102EB00070B516460D4604460FE0324629462046B8
:102EC000FFF7E8FE08B1012070BD681C05D0FEF7D1
:102ED00063FB801BA84207D835B120688069C043D6
:102EE0008007EAD4002070BD54F8440F40F0200061
:102EF00044F80409202060700020A0702070E2E7F0
:102F000010B50446FEF779FB2046BDE8104000F0FE
:102F100001B8000010B504460B4820600B48606003
:102F200000200121C4E9020120616061E0612062AA
:102F3000204600F00DF82046FEF778FB2046BDE85D
:102F400010400021FEF72EBB005800408126700083
:102F500030B5204C87B0E06C40F00200E064E06CDB
:102F60001D4D00F0020005904FF4406000901220CB
:102F700001900120029003200390042004906946F0
:102F80002846FEF7CBF969462846FEF7C7F9A06D3B
:102F900040F48000A065A06D00F480000590A06B57
:102FA00040F48000A063A06B20F48000A0630022A6
:102FB0000F212120FEF746FD2120FEF736FD0022DD
:102FC0000F212220FEF73EFD2220FEF72EFD07B046
:102FD00030BD00000010024000040048FEB50D4660
:102FE0000646DDE908014FF47A748DE8130029469E
:102FF0003046FEF777FB040003D029463046FFF742
:103000007FFF2046FEBDFEB50D460646DDE9080100
:103010004FF47A748DE8130029463046FEF718FC09
:10302000040003D029463046FFF76AFF2046FEBD64
:1030300010B522213C2001F04BF940F0030222217F
:10304000BDE810403C2001F061B970B504460D4662
:10305000C2B220213C2001F059F9C4F307222121FA
:103060003C2001F053F9C4F3074222213C2001F037
:103070004DF9220E23213C2001F048F9EAB2BDE8C7
:10308000704024213C2001F041B910B504462221B2
:103090003C2001F01DF920F020020CB142F020028A
:1030A0002221BDE810403C2001F030B910B501F0FC
:1030B00009F90F21BDE810403C2001F009B90000DA
:1030C00070B505462DED028B86B000249FED248A55
:1030D00021213C2001F0FCF80646062303AAA82182
:1030E0003C2001F007F903A80DF1040200EB4403B2
:1030F00010F814105B7801EB032122F81410641C03
:10310000E4B2032CF2D316F0600006D0202807D0DA
:10311000402808D060280BD108E09FED128A07E014
:103120009FED118A04E09FED118A01E09FED108A66
:103130005FF0000132F9110000EE100AB8EEC00A8B
:1031400020EE080ABDEEC00A10EE100A25F81100A4
:10315000491CC9B20329EDD306B0BDEC028B70BD8A
:1031600000000000295C0F3EE17A943EF628DC3E28
:10317000E17A143F10B50446C0B21A2101F0A8F854
:1031800040F00102E0B21A2101F0C0F8E0B21021D3
:1031900001F09EF820F0720040F03202E0B2BDE88B
:1031A0001040102101F0B2B8FFF7E4BF10B504469B
:1031B00001F088F8E0B2BDE810400F2101F088B8B6
:1031C000F8B50024074625464FEA0D0605F128000C
:1031D000C1B2F8B201F07CF870556D1CEDB2032D50
:1031E000F4D30020C200315C91402143401CC0B2A6
:1031F0000C460328F6D3200201D541F07F44642019
:103200004443E01704EB1050001300EE100A9FED4A
:10321000031AF8EEC00A80EE810AF8BD0000C84229
:1032200010B51021D42001F053F820F0F002102145
:10323000BDE81040D42001F069B810B50446102153
:10324000D42001F045F820F0FC02E1B20A4310213D
:10325000D42001F05BF81221D42001F039F820F0DD
:10326000440242EA14221221BDE81040D42001F0A9
:103270004DB810B504461521D42001F029F820F0EE
:1032800010020CB142F010021521BDE81040D4200C
:1032900001F03CB810B501F015F80F21BDE8104061
:1032A000D42001F015B8000070B505462DED028B55
:1032B00086B000249FED248A1021D42001F008F864
:1032C0000646062303AA2821D42001F013F803A8F8
:1032D0000DF1040200EB440310F814105B7801EBCD
:1032E000032122F81410641CE4B2032CF2D316F06C
:1032F0000C0006D004280DD0082805D00C280BD1CE
:1033000005E09FED128A07E09FED118A04E09FED32
:10331000118A01E09FED108A5FF0000132F911007F
:1033200000EE100AB8EEC00A20EE080ABDEEC00A90
:1033300010EE100A25F81100491CC9B20329EDD37B
:1033400006B0BDEC028B70BD0000000023DB793DB0
:1033500023DBF93D23DB793E23DBF93E10B5112158
:10336000D42000F0B5FF20F0F0021121BDE810409C
:10337000D42000F0CBBF10B504461121D42000F0BA
:10338000A7FF20F0FC02E1B20A431121D42000F093
:10339000BDFF1221D42000F09BFF20F0440242EA3E
:1033A00014221221BDE81040D42000F0AFBF10B5A8
:1033B00004461621D42000F08BFF20F080020CB1CF
:1033C00042F080021621BDE81040D42000F09EBFDC
:1033D00010B500F077FF0F21BDE81040D42000F0B9
:1033E00077BF000070B505462DED028B86B0002436
:1033F0009FED238A1121D42000F06AFF06460623A0
:1034000003AA2221D42000F075FF03A80DF10402C5
:1034100000EB440310F814105B7801EB032122F851
:103420001410641CE4B2032CF2D316F00C0006D086
:10343000042807D0082808D00C280BD108E09FEDFD
:10344000118A07E09FED108A04E09FED108A01E0E9
:103450009FED0F8A5FF0000132F9110000EE100AB3
:1034600005EB8100491CB8EEC00AC9B2032920EE61
:10347000080A80ED000AEFD306B0BDEC028B70BDE8
:103480000000000000000C4100008C4100000C42D4
:1034900000008C4210B51E4801F044FA1D4801F0AE
:1034A00041FA1D4801F03EFAFDF752FB1BA01DE05A
:1034B0004E2804D0712824D0512822D015E024A011
:1034C00001F030FA2A48FDF737FB294C29A0B4F95E
:1034D000001001F027FAB4F902102BA001F022FA33
:1034E000B4F904102DA001F01DFA31A001F01AFA70
:1034F0003AA001F017FAFF2000F01AFF6E28DED084
:10350000D6E7FDF70DFBBDE810403FA001F00ABA79
:10351000C0550008385500086C5400080A2A2A2AA9
:103520002054797065206E206F72204E20746F20B9
:103530006765742061206669727374206D61676EBF
:103540006F2064617461202A2A2A0A0A00000000A0
:103550000A2A2A2A20546869732069732061206E20
:1035600065772064617461202A2A2A0A0A00000013
:103570003C0000204D41474E45544F5F58203D20B0
:103580002564200A000000004D41474E45544F5F1E
:1035900059203D202564200A000000004D41474E7F
:1035A00045544F5F5A203D202564200A000000004A
:1035B0000A2A2A2A2054797065206E206F72204EC4
:1035C00020746F206765742061206E6577206461C8
:1035D0007461202A2A2A0A0A000000000A2A2A2ADC
:1035E00020547970652071206F72205120746F20F3
:1035F00071756974204D61676E65746F20546573D1
:1036000074202A2A2A0A0A000A2A2A2A20456E64D5
:10361000206F66204D61676E65746F20546573740A
:10362000202A2A2A0A0A0000FEE770477047000095
:1036300010B51CA001F076F92AA001F073F9394801
:1036400001F070F9FDF7FAFA37A01AE04E2804D01D
:10365000712821D051281FD012E040A001F062F95A
:10366000FDF700FB10EE100AFCF7DEFD41EC100B3D
:1036700042A053EC102B01F055F938A001F052F99B
:1036800045A001F04FF94FA001F04CF9FF2000F0E8
:103690004FFE6E28E1D0D9E7BDE8104055A001F0FB
:1036A00041B900000A2A2A2A2A2A2A2A2A2A2A2A48
:1036B0002A2A2A2A2A2A2A2A2A2A2A2A2A2A2A2A6A
:1036C0002A2A2A2A2A2A2A2A2A2A2A2A2A2A2A2A5A
:1036D0002A2A2A2A2A2A2A2A2A2A2A2A2A2A2A2A4A
:1036E0002A2A0A000A2A2A2A2A2A2A2A2A2A2A2AA4
:1036F0002A2A2A2A2A2A2A2A2A2A2A205072657342
:10370000737572652054657374202A2A2A2A2A2A1E
:103710002A2A2A2A2A2A2A2A2A2A2A2A2A2A2A2A09
:103720002A2A0A00285400080A2A2A2A20547970D2
:1037300065206E206F72204E20746F2067657420A4
:103740006120666972737420507265737375726557
:103750002064617461202A2A2A0A0A000A2A2A2A75
:1037600020546869732069732061206E6577206436
:10377000617461202A2A2A0A0A0000005052455327
:1037800053555245206973203D20252E3266206D09
:10379000426172200A0000000A2A2A2A2054797005
:1037A00065206E206F72204E20746F206765742034
:1037B00061206E65772064617461202A2A2A0A0AD2
:1037C000000000000A2A2A2A2054797065207120FE
:1037D0006F72205120746F2071756974205072656A
:1037E00073737572652054657374202A2A2A0A0A35
:1037F000000000000A2A2A2A20456E64206F6620F5
:1038000050726573737572652054657374202A2A2B
:103810002A0A0A0000B595B04FF480700690052082
:10382000009000204FF08072CDE90802059001223F
:10383000CDE90E0207900B900C900D90CDE9112070
:103840001020109080040B4613900EAA694604487D
:10385000FEF776F9002800D0012015B000BD000069
:10386000E0010020F0B54B6A4FF040652BB1AA4251
:1038700003D08B6A04685B1E23618C690B6A002C81
:1038800057D05BB304688B68E361CC69B4B1D1E90C
:103890000B3633434F6A4E6B3E4333438E8A43EAC3
:1038A00086430E6933430E6A3343CE683343234362
:1038B0008C6924E0006849688161F0BDD1E90B346E
:1038C00023434D6A4C6B2C4323438C8A43EA844345
:1038D0000C6923430C6A23438C6923E0CE69BEB193
:1038E000D1E90B373B43D1F824C04F6B47EA0C07B3
:1038F0003B438F8A43EA8743CF683B4333432343A9
:103900000C682343046813436361AA42D2D1F0BD1B
:10391000D1E90B352B434E6A4D6B35432B438D8AD2
:1039200043EA85430968234300680B43134343611B
:10393000F0BD3BB304688B68E361CC6994B1D1E915
:103940000B3633434F6A4E6B3E4333438E8A43EA12
:1039500086430E6933430E6A3343CE6833432343B1
:103960008C69CEE7D1E90B3423434D6A4C6B2C4371
:1039700023438C8A43EA84430C6923430C6A896994
:103980002343D1E7CC6964B1D1E90B3633434F6AA5
:103990004E6B3E4333438E8A43EA8643CE683343BD
:1039A000AFE74B6A002BC3D0D1E90B452C434D6BDD
:1039B000898A1D432C43006844EA814111434161D7
:1039C000F0BD00002DE9F04190B04FF480700690FA
:1039D0000520009000200C464FF0807101250590D5
:1039E000CDE90801CDE90A5007900C9041F28836E4
:1039F0000D90324669463148FEF7FBF800285BD14E
:103A0000B04632460EA92D48FEF7E6F9002853D1FC
:103A1000022715260A974246694628480096FEF76F
:103A2000E8F8E8BB42460DF139012448FEF7D4F925
:103A3000B0BB224800F07CFA90BB9DF83A00012C04
:103A40000FD020F0020000BF8DF83A00009503204F
:103A50000A904546424669461848FEF7CAF8F8B942
:103A600002E040F00200EFE72A460EA91348FEF7F5
:103A700019FAA8B929461148FFF7CCFE80B90A9770
:103A80002A4669460D480096FEF7B3F840B92A4623
:103A90000EA90A48FEF7A0F910B99DF8390000E018
:103AA0000AE0810703D4012C06D0800700D51CB1A1
:103AB000002010B0BDE8F0810120FAE7E00100200D
:103AC0002DE9F04100254FA000F02CFF4E4800F0FA
:103AD00029FF4E4800F026FF4B4800F023FFFDF77A
:103AE000C9F8FDF73DF9042813D0012822D048A0D9
:103AF00000F018FF4D4C002020606060A060E06086
:103B000020612046FDF71EF92068B0F5000F30D186
:103B10001EE047A000F006FF4DA000F003FF51A0FB
:103B200000F000FF58A000F0FDFE5FA000F0FAFEDC
:103B300066A001E03EA05CE000F0F4FE6BA000F0A7
:103B4000F1FEFF2000F0F4FB7128F7D1BDE8F08111
:103B50006068B0F5805F0CD1E0684FF48076B042C9
:103B600007D1A068B0F5006F03D12069B0F5004F10
:103B700001D066A03DE06CA000F0D4FE5020FDF71F
:103B8000B5F808B16EA034E073A000F0CBFE274872
:103B90004DF20F2231461430FDF70AFA0024234873
:103BA000210232461430FDF79BF928B170A000F0D5
:103BB000B9FE27A000F0B6FE641C202CEFD3FDF761
:103BC0006BF81A4E00214FF01044143604EB01221A
:103BD00000201778335C9F4201D0431CDDB2401CAB
:103BE00080B2521CFF28F4D9491C2029EED325B1FC
:103BF00065A000F097FE16A09EE769A000F092FE77
:103C00006DA099E70A0000008C56000804560008D1
:103C10005153504920496E697469616C697A6174C5
:103C2000696F6E203A204F4B2E0A0000440200209C
:103C30005153504920496E697469616C697A6174A5
:103C4000696F6E203A204641494C45442E0A0000D7
:103C50005153504920546573742041626F727465EA
:103C6000642E0A00436865636B2074686520686190
:103C700072647761726520636F6E666967757261E1
:103C800074696F6E203A0A002020726566657220A2
:103C9000746F2074686520554D206F6620746865C8
:103CA00020626F6172640A002020666F722074685F
:103CB00065206861726477617265206D6F64696602
:103CC00069636174696F6E730A0000002020746F6D
:103CD00020636F6E6E656374207468652051535065
:103CE00049206D656D6F72790A0000000A2A2A2A40
:103CF0002054797065207120746F2071756974206B
:103D000074657374202A2A2A0A0A00005153504904
:103D10002047455420494E464F203A204641494CC1
:103D200045442E0A00000000515350492047455495
:103D300020494E464F203A204F4B2E2020200A008B
:103D400051535049204552415345203A204641495C
:103D50004C45442E0A000000515350492045524121
:103D60005345203A204F4B2E2020200A000000000F
:103D700051535049205752495445203A2046414911
:103D80004C45442E0A0000005153504920524541F1
:103D900044203A204641494C45442E0A0000000088
:103DA000515350492052454144203A20204F4B2E38
:103DB000202020200A0000005153504920546573F0
:103DC00074203A204F4B2E20202020200A00000093
:103DD000F0B58FB04FF480700690002005260D4698
:103DE00000964FF0807101240590CDE90801CDE9DE
:103DF0000A4007900C9041F288370D903A46694688
:103E00002348FDF7F6FEE0BB3A460EA92048FDF731
:103E1000E3FFB0BB1E4800F08BF890BB9DF8380064
:103E2000012D0CD020F040008DF8380000943C4665
:103E30003A4669461648FDF7DCFE10BB02E040F04A
:103E40004000F1E722460EA91148FEF72BF8C0B951
:103E500021460F48FFF7DEFC98B9224669460C4818
:103E60000096FDF7C6FE60B922460EA90848FDF788
:103E7000B3FF30B99DF83800400603D4012D05D0BA
:103E800001E003E015B100200FB0F0BD0120FBE719
:103E9000E001002010B58EB04FF4807006906620CF
:103EA0000090002007900890099005900B900C90CE
:103EB00041F288340D90224669460A48FDF799FE82
:103EC00068B999200090224669460648FDF791FEA0
:103ED00028B921460348FFF79DFC002800D00120A7
:103EE0000EB010BDE00100202DE9F04198461646C5
:103EF0000F460446069D08E0681C06D0FDF74CFB03
:103F0000A0EB0800A8420AD84DB12068806838406C
:103F100000D00120B042EFD10020BDE8F0810420A4
:103F200084F83900E06B40F00100E0630120F4E721
:103F300030B595B000244FF48070069006200594AB
:103F40000794089441F28835009009940B940C94DE
:103F50002A4669460D940F48FDF74BFEB0B9022082
:103F60000E900F900120CDE91104102010908004D4
:103F70001390052000904FF0807009902B460EAAF8
:103F800069460448FDF7DCFD002800D0012015B08B
:103F900030BD0000E001002070B53FA000F0C2FC81
:103FA0003E4800F0BFFC3E4800F0BCFC3B4800F03F
:103FB000B9FCFCF75FFEFCF7D3FE042813D0012800
:103FC00011D038A000F0AEFC3B4C002020606060B7
:103FD000A060E06020612046FCF7B4FE2068B0F5E8
:103FE000000F13D101E035A04BE06068B0F5805FB1
:103FF0000CD1E0684FF48075A84207D1A068B0F5F5
:10400000006F03D12069B0F5004F01D035A038E032
:104010003FA000F087FC5020FCF768FE08B142A0EA
:104020002FE04CA000F07EFC23484DF20F222946E1
:104030002830FCF7BDFF20482A4650212830FCF7E5
:104040004FFF08B148A01CE052A000F06BFC2A46CC
:1040500050215548FCF710FF08B154A011E05DA0B5
:1040600000F060FC5049FF22A1F580700B780478C5
:10407000A34201D05CA004E0401C491C521EF5D2B2
:1040800064A000F04FFC68A000F04CFCFF2000F0A2
:104090004FF97128F7D170BD0A0000008C56000856
:1040A000485600085153504920496E6974203A20FF
:1040B0004F4B200A000000003002002051535049AD
:1040C00020496E6974203A204641494C45442C20D1
:1040D0005153504920546573742041626F72746566
:1040E00064200A00515350492047455420494E4608
:1040F0004F203A204641494C45442C2051535049C9
:1041000020546573742041626F72746564200A00E4
:10411000515350492047455420494E464F203A209C
:104120004F4B200A00000000515350492045524196
:104130005345203A204641494C45442C2051535088
:104140004920546573742041626F72746564200A5B
:104150000000000051535049204552415345203A38
:10416000204F4B200A00000051535049205752491C
:104170005445203A204641494C45442C2051535047
:104180004920546573742041626F72746564200A1B
:104190000000000051535049205752495445203ADD
:1041A000204F4B200A000000580300205153504973
:1041B0002052454144203A204641494C45442C2058
:1041C0005153504920546573742041626F72746575
:1041D00064200A00515350492052454144203A205E
:1041E0004F4B200A000000005153504920434F4DCF
:1041F00050415245203A204641494C45442C2051DB
:1042000053504920546573742041626F7274656421
:10421000200A0000515350492054657374203A20FD
:104220004F4B200A000000000A2A2A2A20547970E5
:1042300065207120746F20717569742074657374C2
:10424000202A2A2A0A0A0000F8B51C4D0646002436
:10425000A86DC00002D5FDF727FC0DE0A86D40F069
:104260008050A865A86D00F080500090FDF71CFC00
:10427000A96D21F08051A965B0F5007F04D0802E92
:1042800007D94FF003040AE0802E08D9A02E01D8E8
:1042900004E001D1022402E0702E00D1012408487C
:1042A000016821F0070121430160006800F0070068
:1042B000A04201D00120F8BD0020F8BD001002404E
:1042C000002002400148FEF725BE0000100100203A
:1042D0000EB500228DF80820012302AACDE90023A3
:1042E0000A4601460248FEF779FE9DF808000EBD19
:1042F000100100201CB5CDE900230A460146012328
:104300000148FEF76BFE1CBD1001002007B582B00E
:10431000012304AACDE900230A4601460248FEF71C
:1043200072FE05B000BD00001001002070470000C3
:1043300010B50446054800F0A9FF80B2A04204D998
:10434000214603A000F0EEFAFF2010BD0801002076
:104350000A0D202021212120506C656173652065A4
:104360006E7465722076616C6964206E756D62652D
:1043700072206265747765656E203020616E6420FE
:10438000256C75200A000000FDF714BB0D4801687C
:1043900041F4700101600C48016841F001010160C5
:1043A000002181600268094B1A4002608214C260D9
:1043B000026822F48022026081610249C0038039D0
:1043C0000860704788ED00E000100240FFFFF6EA49
:1043D00010B51C4800F0A6FA1B4800F0A3FA1B48D1
:1043E00000F0A0FAFCF7C8FD19481AE04E2804D0E6
:1043F000712821D051281FD012E016A000F092FAA7
:10440000FCF7CCFD10EE100AFBF70EFF41EC100B91
:1044100018A053EC102B00F085FA0EA000F082FAE1
:104420001BA000F07FFA25A000F07CFAFF20FFF728
:104430007FFF6E28E1D0D9E7BDE810402BA000F047
:1044400071BA0000C0550008B05400086C54000850
:10445000DC5300080A2A2A2A2054686973206973E9
:104460002061206E65772064617461202A2A2A0AFF
:104470000A00000054454D504552415455524520C4
:104480006973203D20252E326620B0430A000000CB
:104490000A2A2A2A2054797065206E206F72204ED5
:1044A00020746F206765742061206E6577206461D9
:1044B0007461202A2A2A0A0A000000000A2A2A2AED
:1044C00020547970652071206F72205120746F2004
:1044D000717569742054656D70657261747572656B
:1044E0002054657374202A2A2A0A0A000A2A2A2AD2
:1044F00020456E64206F662054656D70657261742E
:104500007572652054657374202A2A2A0A0A0000ED
:1045100090F82410C90706D001684A68836A22F41B
:1045200000321A434A6090F82410890706D50168C2
:104530004A68C36A22F480321A434A6090F8241011
:10454000490706D501684A68036B22F480221A43A2
:104550004A6090F82410090706D501684A68436B41
:1045600022F400421A434A6090F82410C90606D586
:1045700001688A68836B22F480521A438A6090F83B
:104580002410890606D501688A68C36B22F400529C
:104590001A438A6090F82410490611D501684A68C8
:1045A000036C22F480121A434A60016CB1F5801F3B
:1045B00006D101684A68436C22F4C0021A434A607B
:1045C00090F82410090606D501684A68806C22F428
:1045D000002202434A607047F8B500260446C0F83E
:1045E0008060FCF7D9FF0546206800686FF07E47C1
:1045F000000708D52B4600224FF4001120460097F3
:1046000000F03CF960B92068006840070AD52B46E5
:1046100000224FF480012046009700F02FF908B1E6
:104620000320F8BD2020A067E067266684F8746048
:104630000020F8BD2DE9F041044601688068226938
:10464000E3691043626900251A431043814F0A68E9
:10465000814B1A4002430A6020684168E26821F4F5
:104660004051114341602168A069B94201D0226ADA
:1046700010438A6822F4306202438A6077492268D4
:1046800077488A420DD1D0F8880010F0030006D098
:10469000012866D0022854D0032851D163E00120BC
:1046A0004FE070498A420BD1D0F8880010F00C001E
:1046B00047D0042845D0082851D00C2840D152E0DA
:1046C00069498A420BD1D0F8880010F0300038D008
:1046D000102846D0202842D0302831D143E0634909
:1046E0008A420BD1D0F8880010F0C00029D04028B1
:1046F00037D0802833D0C02822D134E05C498A42A8
:104700000ED1D0F8880010F440701AD0B0F5807F38
:1047100027D0B0F5007F22D0B0F5407F10D122E045
:10472000BA420DD1D0F8880010F4406009D0B0F53D
:10473000806F16D0B0F5006F11D0B0F5406F12D079
:1047400010204C4900264FF40043BA422CD160B1EE
:1047500002280DD004280DD008286FD10EE00220C9
:10476000EFE70420EDE70820EBE7FDF78DFC03E021
:104770000B4603E0FDF7ACFC030066D0626802EB79
:10478000420098425AD8B3EB023F57D8190E1B0289
:104790005008181871410023FBF712FD364AA0F5A6
:1047A000407191424FD949E0E2694FF6EF779A4262
:1047B00028D1092842D2DFE800F005080D41224146
:1047C00041410E00FDF760FC01E0FDF76FFC0300C6
:1047D00001D13AE00B466068590001EB5001B1FB92
:1047E000F0F080B2A0F11001B94227D84FF6F07175
:1047F0000140C0F3420001432068C16025E0FDF79D
:1048000067FCE4E7092819D2DFE800F005080D1875
:104810001A1818180E00FDF737FC01E0FDF746FCEA
:10482000030001D111E00B46606803EB5001B1FBBE
:10483000F0F080B2A0F11001B94204D9012504E0E2
:10484000FDF746FCECE72168C86066662846A66668
:10485000BDE8F08100800040F369FFEF00380140BF
:10486000001002400044004000480040004C00405E
:10487000005000400024F400FFFC0F002DE9F04739
:104880009A4617460E4604464FF000094FF020089E
:10489000089D39E0681C37D0FCF77EFEA0EB0A00CB
:1048A000A84222D80DB32068016849072CD5C069F9
:1048B000C043000528D421684FF4006008622068D6
:1048C000016821F4D07101602068816821F0010144
:1048D0008160C4F87880C4F87C80C4F8808000BF10
:1048E00084F874900320BDE8F0872068016821F403
:1048F000D07101602068816821F001018160C4F8F5
:104900007880C4F87C80EBE72068C06936EA000054
:1049100004D00020B842BDD00020E4E70120F9E730
:10492000FEE700000FB4054B10B503A9044A029836
:1049300000F0EEF810BC5DF814FB00006D520008AA
:104940000C0100200907090E002804DB00F1E0201B
:1049500080F80014704700F00F0000F1E02080F8AC
:10496000141D704702E008C8121F08C1002AFAD1BE
:1049700070477047002001E001C1121F002AFBD1DF
:10498000704700002DE9FF5F82B00021DDE90430AF
:10499000020DDDF840B0034318D044F61050A2F2E7
:1049A000FF3242431514119801281FD0A5EB0B00CC
:1049B000401C5FEA000A4FF000064E4FDFF83891C6
:1049C000B046504615D5CAF1000413E011980124F1
:1049D0004AA3012801D16FEA0B010298119AC0E99C
:1049E0000031C0E9024206B000F08EB8CBF1000001
:1049F000DFE704460021404A491842EB0450CDE964
:104A0000001012E0E00707D032463B4640464946D8
:104A1000FBF701FD8046894632463B461046194663
:104A2000FBF7F9FC06460F466410002CEAD1DDE9DD
:104A30000401DDE90023BAF1000F06DAFBF7EBFC15
:104A400042464B46FBF7E7FC05E0FBF759FD4246C3
:104A50004B46FBF755FD04460E460022284BFBF75C
:104A6000D7FD03D84FF0FF30014607E00022254B69
:104A700020463146FBF720FCFBF7B1FD102409E08E
:104A8000002C0ADB0A220023FBF79AFB039B30323F
:104A90001A55641E50EA0102F2D1641C039AC4F153
:104AA00011031444119A012A03D0012208430DD1A5
:104AB0000AE0084304D000204FF0110B119072E778
:104AC000A3EB0B056D1E0DE05B4504DD4FF000020E
:104AD00005F1010504E003DA4FF00002A5F101053C
:104AE000002AECD002981199C0E90231C0E90045D2
:104AF00079E70000000014400000F03F30000000A3
:104B00000000F0430000E03F30BCBDE8C09F000063
:104B10002DE9FF4F95B09B468946064600250FE2DA
:104B2000252877D100242746F84A0121059400E082
:104B3000044316F8013F203B01FA03F01042F7D17D
:104B400030782A2811D06FF02F033078A0F130028E
:104B5000092A16D8059A44F0020402EB820203EBFC
:104B600042021044761C0590EFE759F8042B059299
:104B7000002A03DA504244F40054059044F0020441
:104B8000761C30782E2816D116F8010F44F0040454
:104B90002A280DD06FF02F023078A0F13003092BB6
:104BA00009D807EB870302EB4303C718761CF3E72A
:104BB00059F8047B761C30786C280FD006DC4C2822
:104BC00017D068280DD06A2814D104E0742810D0BA
:104BD0007A280FD10DE044F400140AE044F4801464
:104BE00001E044F440147278824202D104F580144A
:104BF000761C761C307866280BD013DC582877D0CA
:104C000009DC002875D04528F6D04628F4D047287E
:104C10001AD19DE118E0632835D0642879D0652841
:104C200012D195E1702873D008DC6728F1D069288B
:104C30006FD06E280DD06F2806D1B5E073282CD028
:104C4000752875D0782874D05A46179990476D1CEE
:104C500075E1C4F30250022809D003280DD0D9F819
:104C6000001004280DD00D6009F1040967E1D9F89E
:104C70000010EA17C1E90052F6E7D9F800100D80DC
:104C8000F2E70D70F0E719F8041B8DF80010002012
:104C90008DF80100EA46012003E059F804AB4FF01B
:104CA000FF3061074FF0000102D40DE008F101016F
:104CB0008846B9420FDA8045F8DB1AF80810002957
:104CC000F4D108E008F1010188468142FADB1AF8C4
:104CD00008100029F6D105985B46A0EB080721468D
:104CE0003846179A00F097FA284400EB080507E0C9
:104CF0004DE029E10DE01AF8010B5A46179990474B
:104D0000B8F10108F7D25B4621463846179A13E1FD
:104D100042E00A220092C4F302524FF0000A022A33
:104D200008D059F804CB032A4FEAEC710AD00DE001
:104D300029E02AE009F1070121F00702F2E802C1A7
:104D4000914609E00FFA8CFC4FEAEC71042A03D17A
:104D50004FFA8CFC4FEAEC71002907DA0A46002171
:104D6000DCF1000C61EB02012D2202E0220504D5EA
:104D70002B228DF80420012203E0E20701D020223B
:104D8000F7E7904659E00A2102E010220DE01021D9
:104D90004FF0000A00910BE010224FF0000A44F09F
:104DA00004040827009203E008224FF0000A009252
:104DB000C4F30252022A05D059F804CB0021032A79
:104DC00008D009E009F1070121F00702F2E802C169
:104DD000914605E01FFA8CFC042A01D10CF0FF0C6F
:104DE0004FF00008220728D5702806D0009B83F0DA
:104DF000100353EA0A0305D00EE040228DF8042088
:104E0000012208E05CEA010206D030228DF804207D
:104E10008DF8050002229046009B83F0080353EAB8
:104E20000A030AD15CEA010201D1620705D53022EA
:104E30008DF804204FF001087F1E582804D034A0BC
:104E400003900EA802900DE036A0F9E753466046A5
:104E5000009AFBF7B5F984460398825C0298401EDD
:104E6000029002705CEA0100F0D1029806A9081ACB
:104E700000F1200A600702D524F4803400E0012705
:104E8000574502DDA7EB0A0000E0002000EB0A0115
:104E9000009005984144401A0590E00306D45B4613
:104EA0002146179A059800F0B6F90544002706E058
:104EB00001A85A46C05D179990476D1C7F1C474555
:104EC000F6DBE0030CD55B462146179A059800F007
:104ED000A2F9054404E030205A46179990476D1C0A
:104EE0000099481E00900029F5DC08E0029802991C
:104EF0005A460078491C0291179990476D1CBAF1E7
:104F00000001AAF1010AF1DC65E1000009280100B5
:104F1000303132333435363738396162636465662F
:104F200000000000303132333435363738394142F1
:104F3000434445460000000000F05BF90544761C40
:104F4000307800287FF4ECAD19B0284600F04EB957
:104F5000620700D4062709F1070222F0070CFCE8DB
:104F60000223E14603F000485FEA080C02D00FF28A
:104F7000702C0DE05FEA045C02D50FF2682C07E0AC
:104F80005FEAC47C02D00FF2602C01E0AFF2700C3B
:104F90004FF0FF3823F00043CDF850C065280CD007
:104FA00006DC452809D046281DD047283DD13DE0E4
:104FB000662818D067287ED138E00021112F01DB48
:104FC000112000E0781CCDE9000106A90EA8FFF72A
:104FD000D9FCDDE90F010E9A03910021009207F13F
:104FE000010A04914DE04FF000400097CDE9011017
:104FF00006A90EA8FFF7C6FCDDE90F0203920E9B7F
:1050000011990022DDF80CA00093049211B9791CCB
:1050100000EB010AB7EB0A0004D4C0F1FF3007F13E
:10502000010A0490AAEB0700019044E0012F00DA86
:1050300001270021112F01DD112000E03846CDE9C4
:10504000000106A90EA8FFF79DFCDDE90F010E9AED
:105050000391002104910092BA4621070CD40399D0
:10506000514500DA8A46BAF1010F05DD009AAAF12E
:105070000101515C302908D0B84202DA10F1040F66
:1050800006DA0121CDE9011015E0AAF10101E9E7F5
:10509000002805DC049901440491AAEB000102E018
:1050A000411C514500DD8A460499401A401C01907C
:1050B0004FF000400290200704D40198504501DBD6
:1050C000CDF8048000208DF84F0002980DF14F07B5
:1050D000B0F1004F25D02B200E9002984FF002081F
:1050E00000280CDA404202902D200E9007E00A21A1
:1050F0000298FBF7ACF83031029007F8011DB8F1C7
:105100000001A8F10108F2DC02980028EFD1791E15
:105110000E980870307800F0200040F0450007F845
:10512000020D12A8C01B00F107081498007800B106
:10513000012000EB0A01019801EBE0710598414460
:10514000401A401E0590E00306D45B462146179A9C
:10515000059800F060F805441498007818B15A4694
:10516000179990476D1CE00324D55B462146179A9A
:10517000059800F050F805441CE00498002807DB6F
:10518000DDE90301884203DD0098405C179901E0E6
:10519000179930205A469047049805F10105401CA4
:1051A00004900198401E019004D12E205A46179970
:1051B00090476D1CBAF10001AAF1010ADDDC05E09F
:1051C00017F8010B5A46179990476D1CB8F100016A
:1051D000A8F10108F4DC5B462146179A0598ABE676
:1051E0002D0000002B0000002000000030BCBDE8B6
:1051F000C08F2DE9F041044600251E46174688045D
:1052000004D405E039462020B0476D1C641EF9D552
:105210002846BDE8F0812DE9F041044600251E46F0
:105220009046C80301D5302700E02027880404D524
:1052300005E041463846B0476D1C641EF9D5284646
:10524000BDE8F08138B500208DF8000047F23054F9
:105250002346012269460448FDF768FA0028F7D181
:105260009DF8000038BD00005C01002013B547F236
:1052700030542346012269460348FDF7D7FA002837
:10528000F7D100981CBD00005C010020FFF7DABFD9
:1052900096B0FCF797FB10200090012060210024BD
:1052A0000690CDE907410221CDE90A100C90282093
:1052B0000D9007200E900420CDE90F016846FCF701
:1052C00059FF00B1FEE70F2011900320CDE9120431
:1052D0001494042111A81594FCF746FE00B1FEE7D2
:1052E0000020FBF7EBFB00210846FBF761FC1B48A5
:1052F000194901604FF4E131C0E901140C21C46087
:10530000C0E904418461C461046201464462002032
:10531000FBF738FB12A0FFF705FB0020FBF73CFC76
:105320000028FAD00020FBF737FC0128FAD0002033
:10533000FBF7E8FBFEF730FEFEF7C2FBFFF748F88D
:10534000FDF7A6FBFEF774F9FEF7A4F8FBF73AFEAB
:10535000FBF7F8F9EEE70000003801405C0100209F
:105360005072657373205573657220627574746F23
:105370006E20746F20707574204C454432204F4E5F
:10538000200A0000002028004000800007000700DD
:1053900000400000000000000000000001020304C3
:1053A00006070809A0860100400D0300801A0600C8
:1053B00000350C0040420F0080841E0000093D00B3
:1053C00000127A000024F40000366E010048E80163
:1053D000006CDC0200000000010203040A2A2A2AF1
:1053E0002054797065206E206F72204E20746F20DB
:1053F00067657420612066697273742054656D70EE
:105400006572617475726520646174612066726F83
:105410006D204854533232312073656E736F7220A1
:105420002A2A2A0A0A0000000A2A2A2A2A2A2A2ABA
:105430002A2A2A2A2A2A2A2A2A2A2A2A2A2A2A2ACC
:105440002A2A2A2A2A2A2A2A2A2A2A2A2A2A2A2ABC
:105450002A2A2A2A2A2A2A2A2A2A2A2A2A2A2A2AAC
:105460002A2A2A2A2A2A0A0A000000000A2A2A2AA4
:105470002A2A2A2A2A2A2A2A2A2A2A2A2A2A2A2A8C
:105480002A2A2A2A2A2A2A2A2A2A2A2A2A2A2A2A7C
:105490002A2A2A2A2A2A2A2A2A2A2A2A2A2A2A2A6C
:1054A0002A2A2A2A2A2A2A2A2A2A2A2A0A0A0000F0
:1054B0000A2A2A2A2A2A2A2A2A2A2A2A2A2A2A2A6C
:1054C0002A2A2A2A2A2A2A2054656D706572617454
:1054D0007572652054657374202A2A2A2A2A2A2A7A
:1054E0002A2A2A2A2A2A2A2A2A2A2A2A2A2A2A2A1C
:1054F0000A0000000A2A2A2A2A2A2A2A2A2A2A2ACA
:105500002A2A2A2A2A2A2A2A20416363656C65727C
:105510006F6D657465722054657374202A2A2A2A77
:105520002A2A2A2A2A2A2A2A2A2A2A2A2A2A2A2ADB
:105530002A2A2A2A0A0000000A2A2A2A2A2A2A2A89
:105540002A2A2A2A2A2A2A2A2A2A2A2A2A2A2A2ABB
:105550002A204D61676E65746F2054657374202A2C
:105560002A2A2A2A2A2A2A2A2A2A2A2A2A2A2A2A9B
:105570002A2A2A2A2A2A2A2A0A0000000A2A2A2A49
:105580002A2A2A2A2A2A2A2A2A2A2A2A2A2A2A2A7B
:105590002A2A2A2A2A2A204779726F20546573748E
:1055A000202A2A2A2A2A2A2A2A2A2A2A2A2A2A2A65
:1055B0002A2A2A2A2A2A2A2A2A2A2A2A0A000000E9
:1055C0000A2A2A2A2A2A2A2A2A2A2A2A2A2A2A2A5B
:1055D0002A2A2A2A2A2A2A2A2A2A2A2A2A2A2A2A2B
:1055E0002A2A2A2A2A2A2A2A2A2A2A2A2A2A2A2A1B
:1055F0002A2A2A2A2A2A2A2A2A2A2A2A2A2A2A2A0B
:105600000A0000002A2A2A2A2A2A2A2A2A2A2A2A98
:105610002A2A2A2A2A2A2A2051535049204D656DC8
:105620006F7279204D6170706564205465737420C9
:105630002A2A2A2A2A2A2A2A2A2A2A2A2A2A2A2ACA
:105640002A2A2A2A2A0A00002A2A2A2A2A2A2A2A2E
:105650002A2A2A2A2A2A2A2A2A2A2A2A2A2A2A2AAA
:105660002A2A2A2A2A2A2051535049205465737421
:10567000202A2A2A2A2A2A2A2A2A2A2A2A2A2A2A94
:105680002A2A2A2A2A2A2A2A2A0A00002A2A2A2AEE
:105690002A2A2A2A2A2A2A2A2A2A2A2A2A2A2A2A6A
:1056A0002A2A2A2A2A2A2A2A2A2A2A2A2A2A2A2A5A
:1056B0002A2A2A2A2A2A2A2A2A2A2A2A2A2A2A2A4A
:1056C0002A2A2A2A2A2A2A2A2A2A2A2A2A0A0000AE
:1056D000F056000800000020100100006449000896
:1056E0000058000810010020480700007449000815
:1056F0000004004800080048003801400004004849
:10570000000400480000000000000000000000004D
:105710000000000000000000000000000100000088
:10572000100000000000000000093D000000000023
:10573000000000004B30000831300008AD30000898
:10574000000000008B300008000000000000000096
:105750000000000000000000000000000000000049
:1057600000000000C1300008A9310008AD31000878
:10577000C1310008E3280008C529000805290008F0
:10578000D92900080000000000000000F9290008E5
:105790003B3200082132000895320008000000006A
:1057A000733200080000000000000000000000004C
:1057B00000000000000000000000000000000000E9
:1057C000A9320008773300085D330008D1330008A0
:1057D00000000000AF3300080000000000000000DF
:1057E00000000000000000000000000000000000B9
:1057F00000000000E5330008000000000000000089
:040000050800018965
:00000001FF
